:100000000C94B2020C94F9020C94F9020C94F902CB
:100010000C94F9020C94F9020C94F9020C94F90274
:100020000C94F9020C94F9020C94DC180C949818B6
:100030000C940B1E0C94F9020C94F9020C94F90226
:100040000C94F9020C94F9020C94F9020C94F90244
:100050000C94F9020C94E71D0C94F9020C94F9022B
:100060000C94F9020C94F9020C94F9020C94F90224
:100070000C94F9020C94F9020C94F9020C94F90214
:100080000C94F9020C94F9020C94F9020C94F90204
:100090000C94F9020C94F9020C94F9020C94F902F4
:1000A0000C94F9020C94F9020C94F902050109026E
:1000B000A10185020901A100050919012905150001
:1000C00025019505750181029501750381010501E1
:1000D000093009311581257F950275088106093897
:1000E0001581257F950175088106050C0A380215D2
:1000F00081257F950175088106C0C005010980A191
:1001000001850319012AB700150126B7009501756D
:10011000108100C0050C0901A101850419012AA064
:1001200002150126A002950175108100C00660FF2E
:100130000961A1010962150026FF0095207508815B
:10014000020963150026FF00952075089102C0057D
:10015000010906A101050719E029E7150025019508
:1001600008750181029501750881010507190029AB
:10017000FF150026FF009506750881000508190186
:100180002905950575019102950175039101C053EB
:100190000054005500560035001E001F00200021AD
:1001A000002200230024002500260027002D002E19
:1001B000002A005F006000610057002B0014001A45
:1001C000000800150017001C0018000C0012001396
:1001D000002F00300031005C005D005E003900043B
:1001E000001600070009000A000B000D000E000FAA
:1001F0000033003400280059005A005B005800E129
:10020000001D001B0006001900050011001000363B
:100210000037003800E50062006300E000E300E220
:10022000002C000151E7006500E400000000000020
:1002300000010001000100010001003A003B003C08
:10024000003D003E003F00400041004200430044AA
:100250000045004C00010001000100010001000107
:100260000001000100005C0100010001000100012B
:100270000001000100010001000100010001000176
:100280000001000100010001000100010001000166
:100290000001000100010001000100010001000156
:1002A0000001000100010001000100010001000146
:1002B0000001000100010001000100010001000136
:1002C0000001000100010001000100010000000028
:1002D0000000000100010001000100010001000117
:1002E0000001000100010001000100010001000106
:1002F00000010001000100010001000100010001F6
:1003000000010001000100010001000100010001E5
:1003100000010001000100010001000100010001D5
:1003200000010001000100010001000100010001C5
:1003300000010001000100010001000100010001B5
:1003400000010001000100010001000100010001A5
:100350000001000100010001000100010001000195
:100360000001000100010001000100010001000086
:100370000000000000010001000100010001000177
:100380000001000100010001000100010001000165
:100390000001000100010001000100010001000155
:1003A0000001000100010001000100010001000145
:1003B0000001000100010001000100010001000135
:1003C0000001000100010001000100010001000125
:1003D0000001000100010001000100010001000115
:1003E0000001000100010001000100010001000105
:1003F00000010001000100010001000100010001F5
:1004000000010001000100010001000100010001E4
:1004100000000000000000000000000000000000DC
:1004200000000000000000000000007E0F00D4FF6C
:10043000FFFFC70000007800000000000000002A55
:100440002B28000000000000000000000000000059
:10045000000029000000002C1E3420212224342614
:1004600027252E362D3738271E1F2021222324250D
:10047000263333362E37381F0405060708090A0BC2
:100480000C0D0E0F101112131415161718191A1B34
:100490001C1D2F3130232D350405060708090A0BD2
:1004A0000C0D0E0F101112131415161718191A1B14
:1004B0001C1D2F3130354C09025B00030100A0FAEE
:1004C00009040000010301010009211101000122BA
:1004D00040000705810308000A0904010002030027
:1004E00000000921110100012222000705820320DA
:1004F00000010705030320000109040200010300B5
:100500000000092111010001228100070584032058
:10051000000A12011001000000084F48505301006A
:1005200001020301040330000000220373006F0086
:10053000750074006800700061007700200064009E
:1005400065006600610075006C0074000000100317
:100550006400720065007700670075007900000094
:100560000403090411241FBECFEFDAE0DEBFCDBFC4
:1005700004B603FE27C08091530290915402A091CB
:100580005502B09156028730904BA740B04BD1F442
:100590001092530210925402109255021092560279
:1005A00014BE84B7877F84BF0FB6F894A895809156
:1005B0006000886180936000109260000FBEE0E0F0
:1005C000F8E3099511E0A0E0B1E0E4ECFDE302C03E
:1005D00005900D92AE35B107D9F722E0AEE5B1E056
:1005E00001C01D92A335B207E1F70E94B7190C9420
:1005F000A91E0C940000E8EDF0E080818E7F8083DE
:100600001092E2001092DA001092E100A0EEB0E049
:100610008C9181608C9380818F77808319BCA7ED4A
:10062000B0E08C918E7F8C9380818F7E808310923E
:10063000380208952091E4003091E50095E6A90183
:100640002091EC00822F817020FF06C08091E8008D
:1006500080FF06C080E008952091E80022FD1AC0C6
:1006600080914E02882389F0853089F08091EB00DB
:1006700085FD0FC02091E4003091E500421753073B
:10068000F9F29150E1F684E0089582E0089583E064
:10069000089581E00895EF92FF920F931F93CF93F7
:1006A0007C018B010E941A03C82F811117C0809111
:1006B000E80085FD0BC08091E8008E778093E8000C
:1006C0000E941A03882399F3C82F08C0F70181916B
:1006D0007F018093F1000150110949F78C2FCF91D0
:1006E0001F910F91FF90EF900895CF93FC0180919F
:1006F0004E02843001F5C091E900CF702091EC00EA
:10070000922F917020FD90E8C92B82E08093E90040
:100710008091E80080FF0CC050E040E060E270E0B3
:10072000CF010E944B038091E8008E778093E80010
:10073000CF70C093E900CF9108958091460287FF62
:1007400013C08091E80082FF06C08091E8008B779B
:100750008093E80004C080914E028111F2CF089589
:1007600080914E028823D9F38091E80080FFF8CF72
:100770008091E8008E77ECCF982F9093E900242F9A
:10078000762F50E0891731F07091EC002091ED0048
:100790005091F00021FD07C09F5F973071F7809363
:1007A000E90081E008953091EB003E7F3093EB004B
:1007B0003091ED003D7F3093ED003091EB003160E2
:1007C0003093EB007093EC002093ED005093F00019
:1007D0002091EE0027FDE0CF80E00895CF92DF92D8
:1007E000EF92FF920F931F93CF93DF93C8EDD0E06A
:1007F00088818F7E8883E7EDF0E08081816080834F
:1008000084E082BF81E08093380288818E7F888374
:1008100002EE10E0F80110821092DA0081EEC82E8C
:10082000D12CF601108288818F7788838881806837
:10083000888388818F7D888319BC10924E02109224
:100840004502109244021092430290EEE92EF12CE0
:10085000F70180818B7F808388818160888342E07B
:1008600060E080E00E94BC03F60180818E7F80837F
:10087000F801808181608083808188608083F701B6
:1008800080818E7F8083888180618883DF91CF9192
:100890001F910F91FF90EF90DF90CF900895FC0192
:1008A00080914C0290914D0286179707A0F0611538
:1008B000710529F49091E8009E779093E80090E00C
:1008C0006115710551F4911108C08091E80082FF13
:1008D00034C080E00895BC01F2CF80914E0288239D
:1008E000C1F18530C1F18091E80083FD30C0809175
:1008F000E80082FDEACF8091E80080FFE1CF80919F
:10090000F3002091F200382F6115710519F028309D
:10091000310558F091E02830310509F090E0209140
:10092000E8002E772093E800CBCF81918093F100EF
:10093000615071092F5F3F4FE7CF80914E028823AE
:1009400041F0853041F08091E80083FFBECF81E027
:10095000089582E0089583E0089580914E028430E6
:1009600011F482E0089581E0089580913A0208959B
:1009700090910A02803F41F480910B0287FD109212
:100980000B02992371F00895813F29F480910B02A5
:100990001816ACF3F6CF823F81F497FFF2CF109296
:1009A0000A0280910B0290910C02892B90910D020A
:1009B000892B49F7109205020895833F19F41916FF
:1009C00074F3DFCF893F39F480910C021816CCF60E
:1009D00010920C02D6CF8A3F29F480910C0287FF37
:1009E000D0CFF6CF8B3F39F480910D0287FFC9CF6E
:1009F00010920D02C6CF8C3F29F480910D0218167B
:100A0000BCF3BFCF843F31F4809109028E7F809385
:100A10000902B7CF853F21F4809109028D7FF7CF7E
:100A2000863F21F4809109028B7FF1CF873F21F42B
:100A300080910902877FEBCF883F21F480910902E2
:100A40008F7EE5CF8D3F31F48091E9018E7F8093D9
:100A5000E90197CF8E3F21F48091E9018D7FF7CF97
:100A60008F3F09F08ECF8091E9018B7FF0CF80918D
:100A7000E90180FD16C081FD16C082FD16C080917F
:100A800005028823A1F0883280F428E0829FC0010B
:100A9000112468E270E00E94321E862F672B39F025
:100AA000089582E0089584E0089588E0089581E043
:100AB00008958091E90180FD14C081FD14C082FD7C
:100AC00016C080910502882381F0843180F422E3EE
:100AD000829FC001112464E170E00E94321E862FC3
:100AE00008958CE0089589E1089585E0089582E3F2
:100AF0000895803F31F40E945905819580930B023F
:100B00000895813F19F40E945905F8CF823F31F4CE
:100B10000E945905819580930A020895833F19F434
:100B20000E945905F8CF893F29F40E943705809328
:100B30000C0208958A3F21F40E9437058195F7CF72
:100B40008B3F31F40E943705819580930D02089503
:100B50008C3F19F40E943705F8CF843F31F480911F
:100B600009028160809309020895853F21F48091F4
:100B700009028260F7CF863F21F4809109028460E8
:100B8000F1CF873F21F4809109028860EBCF883F45
:100B900021F4809109028061E5CF8D3F31F480918D
:100BA000E90181608093E90108958E3F21F48091ED
:100BB000E9018260F7CF8F3FB9F78091E901846046
:100BC000F1CF9C014FB7F894809134029091350297
:100BD000A0913602B09137024FBF821B930B08954C
:100BE0002FB7F8948091340290913502A09136028B
:100BF000B09137022FBF0895E091FE01F091FF01FF
:100C0000309749F082E0809308020480F581E02D5E
:100C100088E092E009950E94F00590930402809389
:100C2000030208959C01FC0132969FEF80E0419100
:100C3000461751F09F3F19F4411101C0982F8F5F63
:100C40008630A9F79F3F09F40895290F311D97FDBC
:100C50003A95F901628308958091E401811110921F
:100C6000E40108958091E3019091E201892B909134
:100C7000E101892B80935E019091E401992391F029
:100C8000892B80935E0120E080E691E0FC013191A8
:100C9000CF0131112F5FF1E086369F07B9F721119F
:100CA0000E942C06E091FE01F091FF01309731F097
:100CB0000280F381E02D8EE591E00994089529E00A
:100CC000929F800D1124982F977086958695869512
:100CD00025E0829FF0011124E755FE4F50E040E0EF
:100CE00080E0219130E0092E02C0369527950A94C4
:100CF000E2F721703327042E01C0220F0A94EAF78D
:100D0000822B4F5F5F4F4530510559F7089529E019
:100D1000929F800D1124982F977041E001C0440FDD
:100D20009A95EAF786958695869595E0899FF001D4
:100D30001124E755FE4F90E080E070E05191DF0113
:100D400011979B01082E02C0369527950A94E2F769
:100D5000217021952527242325272C930196853062
:100D6000910561F708958091A801909177019813FA
:100D700001C008958F5F8770FACF882341F0809576
:100D80009091E30189238093E3010C943206089546
:100D9000882339F09091E301982B9093E3010C9410
:100DA0003206089520916D0130916E0128173907A0
:100DB00071F090936E0180936D01E091FE01F091CE
:100DC000FF01309721F00084F185E02D099408950A
:100DD00020916B0130916C012817390771F09093C5
:100DE0006C0180936B01E091FE01F091FF0130975F
:100DF00021F00680F781E02D099408951092E20118
:100E00001092E1010E94320686E0E8E0F2E0DF01A4
:100E10001D928A95E9F7109205021092E9010E944D
:100E2000FC0590E080E00E94E80690E080E00C94F1
:100E3000D20660934F0270935002809351029093B8
:100E400052020C94FE060F931F9360914F02709113
:100E5000500280915102909152028B019C010670C8
:100E6000112722273327063011052105310529F4E2
:100E700068601F910F910C941907677FFACF0F9349
:100E80001F9341E050E060E070E004C0440F551F44
:100E9000661F771F8A95D2F7CB01BA0160957095CE
:100EA0008095909500914F0210915002209151022F
:100EB0003091520260237123822393231F910F915B
:100EC0000C9419079091E001809589238093E001AB
:100ED000282F277071F4282F082E000C330B92173F
:100EE000130639F08595859585950E943F071092E8
:100EF000E00108950F931F9341E050E060E070E03F
:100F000004C0440F551F661F771F8A95D2F7809142
:100F10004F0290915002A0915102B09152028A0169
:100F20009B01082B192B2A2B3B2BC901B8011F91C0
:100F30000F910C9419076093E5017093E60180937B
:100F4000E7019093E8010C94FE068823F1F19CEFF1
:100F5000980F913A78F4E0E6F1E026E631E09191DD
:100F6000891303C0DF0111971C922E173F07B9F7B1
:100F70000C94320690E2980F983088F4877021E044
:100F800030E0A90102C0440F551F8A95E2F7CA015B
:100F900080959091E30189238093E301E9CF9BE55C
:100FA000980F933020F490E080E00C94E80698E5E8
:100FB000980F973120F490E080E00C94D206803FA7
:100FC00020F00E94B8040C94FC050895CF93C82F1C
:100FD000882309F456C08CEF8C0F813AF8F4E0E6D0
:100FE000F1E086E691E0DF012D91C21759F08A17F2
:100FF0009B07D1F76C2F8EE591E00E941206CF91EE
:101000000C9432062191C21303C0DF0111971C9288
:101010008E179F07B9F70E943206ECCF80E28C0F43
:10102000883068F4C77021E030E001C0220FCA9513
:10103000EAF78091E301822B8093E301E0CFEBE5B7
:10104000EC0FE33040F4F0E0E55FFE4F808190E08C
:10105000CF910C94E806E8E5EC0FE73150F4F0E0AE
:10106000EE0FFF1FE25FFE4F80819181CF910C94C4
:10107000D206C03F30F08C2F0E947905CF910C949E
:10108000FC05CF910895E091FE01F091FF013097AA
:1010900021F00190F081E02D099480E00895909175
:1010A000FC0192FF06C0282F28712830F9F4877FB1
:1010B000846093FF06C0282F28712831F1F4877EC1
:1010C00084612091FD0120FF06C0382F387138302F
:1010D000D9F4877F816021FF06C0282F287128312D
:1010E000D1F4877E816194FD877E0895282F247135
:1010F0002430F9F68B7F8860DCCF282F24712431CF
:1011000001F78B7E8861DDCF382F3171313019F7CF
:101110008E7F8860E0CF282F2171213121F78E7ECC
:101120008861E1CFCF93DF9300D00F92CDB7DEB7C8
:1011300090914E02943011F589837B836A8390935A
:10114000E9008FEF9091E800815095FD06C095ED84
:101150009A95F1F700008111F5CF8091E80085FFA5
:101160000DC050E040E063E070E0CE0101960E94C7
:101170004B038091E8008E778093E8000F900F90EA
:101180000F90DF91CF910895CF93DF93EC010E94F0
:10119000AD04823011F0843031F4BE0184E0DF917F
:1011A000CF910C949208DF91CF910895BC0183E018
:1011B0000C949208CF93DF93EC010E94AD0482302F
:1011C00011F08430F9F484E08093E9008FEF90917E
:1011D000E800815095FD06C095ED9A95F1F7000065
:1011E0008111F5CF8091E80085FF0CC050E040E010
:1011F00066E070E0CE010E944B038091E8008E779C
:101200008093E800DF91CF910895CF93DF93EC01B5
:101210000E94AD04823011F0843039F581E0809372
:10122000E9008FEF9091E800815095FD06C095EDA3
:101230009A95F1F700008111F5CF8091E80085FFC4
:1012400014C050E040E068E070E0CE010E944B0323
:101250008091E8008E778093E80088E0FE01ABE3A0
:10126000B2E001900D928A95E1F7DF91CF91089558
:1012700081E08093E00080E28093D8001092C90062
:101280008FE19EE40197F1F700C0000087E090EB4A
:10129000DC018093530290935402A0935502B093C3
:1012A000560288E19CE00FB6F894A8958093600000
:1012B0000FBE90936000FFCFCF93C82F0E94E60728
:1012C000C93349F42FEF87EE93E0215080409040DE
:1012D000E1F700C000008C2FCF910C94A5070F936D
:1012E0001F93CF93DF93C62FD42F022FFC0182814F
:1012F0008823A1F060936F010E94F00590936A012A
:1013000080936901C77081E001C0880FCA95EAF730
:10131000DF91CF911F910F910C94C80610916F012E
:10132000161335C08091690190916A010E94E10510
:10133000883C910560F5C0E2CD0F1D17B9F080E241
:10134000810F883040F4177081E001C0880F1A9532
:10135000EAF70E94BD06C83048F481E09D2F9770DF
:1013600001C0880F9A95EAF70E94C806802F0E9454
:101370005C09C83098F4D77081E001C0880FDA9515
:10138000EAF7DF91CF911F910F910C94BD06C770C2
:1013900081E001C0880FCA95EAF7F3CFDF91CF91C2
:1013A0001F910F9108956F927F929F92AF92BF927B
:1013B000CF92DF92EF92FF920F931F93CF93DF9321
:1013C0004CE351E00AEE11E03801C0E0EE24E39472
:1013D000F12CDA018D91AD01E82FE295EF70F0E08C
:1013E00091A18F70570101C0AA0C8A95EAF7892F45
:1013F0008A2981A382A19A2C9094892182A3B0EAA0
:10140000BA95F1F785E4C82E81E0D82E30E020E0CF
:1014100090E080E0D601DD916D016D2F62956F70D7
:1014200070E0DB0190966C9170E0DF7002C0759502
:101430006795DA95E2F760FD49C0B701022E02C058
:10144000660F771F0A94E2F7862B972B2F5F3F4F8B
:1014500029303105F9F621A1292121A322A1A22AAF
:10146000A2A2F301208131818217930791F1918328
:10147000808381E0C82BF2E06F0E711C81E045345F
:10148000580709F0A6CFCC2331F181E080936801A1
:101490000E94F00590936701809366018091660138
:1014A000909167010E94E1050697C8F0E2E2F2E040
:1014B0008CEF91E0D8012D913D918D0121933193D5
:1014C0008A179B07B9F71092680109C070E060E0C5
:1014D000BBCF80E0CFCF809168018111DFCF8C2F0F
:1014E000DF91CF911F910F91FF90EF90DF90CF9000
:1014F000BF90AF909F907F906F900895CF9384E0BE
:1015000090E00E94671EC82F81E290E00E94671E53
:10151000982F8C2FCF9108950F931F93CF93DF9324
:10152000C42FD0E0CC0FDD1F22E1629FC00DD11D82
:10153000112432EA839FC00DD11D1124CE0186965D
:101540000E94671E082F10E0102F0027CE018796FB
:101550000E94671E9801282BC901DF91CF911F912E
:101560000F910895462F843038F4793028F469308B
:1015700018F4672F0C948C0A90E080E00895CF93C4
:10158000DF930E94B20AEC0182389105A9F1D8F5E7
:101590008133910509F496C048F58932910509F423
:1015A0008AC08A9709F495C0C11521E5D20708F0D1
:1015B000BCC0C11530E5D30708F014C1C83ED10541
:1015C00008F09CC0C03ED10560F5C83AD10508F0CE
:1015D00087C0C53AD10508F0FDC0C130D10509F179
:1015E0002097F9F0C430D105E0F440C0853391056F
:1015F00009F45AC0C997C1F68091FC01837089F043
:10160000C0EED0E00EC0833E910599F170F4803EAB
:10161000910501F1823E910539F68091FC0182FD30
:1016200021C0CE01DF91CF910895863E910561F1F1
:10163000873E910571F1843E910509F0B5CF809107
:10164000FD0181FFEECF8091FC01C7EED0E084FD6B
:101650000DC0E7CF8091FC0180FD12C19091FD018A
:1016600090FFDFCFC3EED0E084FFDBCFD0E0C0E05F
:10167000D8CF8091FC0182FD06C19091FD0190FDC3
:10168000BFCF84FFCECFF2CF8091FC0183FDDDCFB1
:10169000C8CF8091FC0183FDF9C09091FD0191FFBD
:1016A000F0CFC4EED0E0BDCF8091FC0185FFB9CF73
:1016B000C9E2D0E0B6CF8091FC0185FFB2CFC5E38F
:1016C000D0E0AFCF8091FC0186FFABCFCAE2D0E083
:1016D000A8CF8091FC0186FFA4CFC1E3D0E0A1CFC9
:1016E000CF3BD10518F6C85AD0E0CC0FDD1FC25F42
:1016F000DE4F0990D881C02DD46493CFC11540E24C
:10170000D40758F4C11581E0D80708F08ACFC03F4C
:10171000D10508F4ABCFD06584CFC11590E4D907CB
:1017200008F4A4CFDF70D06A7CCFC11525E5D207BD
:1017300000F5C11534E5D30708F08AC0C11543E5AB
:10174000D40708F071C0C11582E5D80708F467C056
:10175000CE018370992721E030E002C0220F331FB1
:101760008A95E2F7C695C69580E2C89FE0011124EC
:1017700052C0C11599E5D907A8F4C11528E5D207CB
:1017800008F06BC0C11536E5D30708F06FCF8C2F7A
:101790000E944F08C82FD0E0DC2FCC27CC27DF7168
:1017A000D0623FCFC1154AE5D40708F45BC0CE0133
:1017B00090568115904208F059CF8D2F8F710E945D
:1017C0004F0890E0982F882788279F719C012C2B29
:1017D000E901E6CFC55AD0E0C55FDE4FC881D0E051
:1017E000D0641FCFCE01E4E096958795EA95E1F7A6
:1017F00083702C2F26952695237040E2249F90011C
:101800001124382B8C2F8370C1E0D0E002C0CC0FA4
:10181000DD1F8A95E2F7C22BD32BDC6802CFDC2FC9
:10182000CC27C16FD06AFDCECE018370992721E00D
:1018300030E002C0220F331F8A95E2F7C695C695A5
:1018400090E2C99FE0011124C22BD32BDA68E9CEC4
:10185000DC2FCC27C46FD06AE4CEDC2FCC27C06F3E
:10186000D06ADFCE8C2F8F700E944F0834E0D6955F
:10187000C7953A95E1F7CF709C2FEC01D069D1CE96
:10188000C9E3D0E0CECEC2EED0E0CBCEC6EED0E003
:10189000C8CEBF92CF92DF92EF92FF920F931F9329
:1018A000CF93DF938C01C0904F02D0905002E09014
:1018B0005102F09052028091E5019091E601A091D1
:1018C000E701B091E801C82AD92AEA2AFB2ACFE128
:1018D000D0E0BC2ED701C6010C2E04C0B695A7954A
:1018E000979587950A94D2F780FD0EC0219788F7C7
:1018F000B12C8B2DDF91CF911F910F91FF90EF9025
:10190000DF90CF90BF900895B8018C2F0E94BF0A3E
:10191000019761F3EECFCF93DF93EC010E94490C66
:10192000BE01DF91CF910C94BF0A0E948B0C292F2E
:101930002F7092959F7092509E3078F4E92FF0E0CE
:10194000E555F14E0C94461E803F19F020F4883E78
:1019500020F481E00895843FE1F380E00895883E1B
:10196000C0F3813FD1F7F5CF822F86958695869576
:1019700008956F927F928F929F92AF92BF92CF9273
:10198000DF92EF92FF920F931F93CF93DF938FE835
:10199000C82E81E0D82E9AEDE92EF12CE701C25A2B
:1019A000D10936011BC0F50185909490692DC801BD
:1019B0000E94751E682DC80101960E94751E82E066
:1019C000A80EB11C0E5F1F4FC017D10761F782E14F
:1019D000680E711C6296CE15DF0529F08E0102514A
:1019E00011095301E0CF7E0182EAE80EF11C82EA80
:1019F000C80ED11C82E6E81683E0F80679F6DF917E
:101A0000CF911F910F91FF90EF90DF90CF90BF90FB
:101A1000AF909F908F907F906F900895CF93DF93BA
:101A2000CEEAD2E060E0CE010E94751E2196C1157B
:101A300084E0D807B9F7DF91CF910895CF93C82FED
:101A40006FEF811160E282E290E00E94751E6FEFFD
:101A5000C11168E083E290E00E94751E6FEFC11132
:101A600061E284E290E0CF910C94751E6CEE7EEF03
:101A700090E080E00E94931E60E082E090E00E948F
:101A8000751E60E083E090E00E94751E1092E501F3
:101A90001092E6011092E7011092E80160E084E004
:101AA00090E00E94751E60E081E290E00E94751E49
:101AB00060E085E090E00E94751E60E086E090E0C6
:101AC0000E94751E6FEF87E090E00E94751E40E057
:101AD00050E0BA0188E090E00E94871E60E08DE04F
:101AE00090E00E94751E40E050E0BA0188E190E06D
:101AF0000E94871E60E087E190E00E94751E40E032
:101B000050E0BA018CE190E00E94871E60E080E224
:101B100090E00E94751E40E050E0BA018FE090E036
:101B20000E94871E40E050E0BA0183E190E00C94EF
:101B3000871E1092E301E0E6F1E086E0DF011D92EE
:101B40008A95E9F70C94FE061F93CF93DF93CDB7E8
:101B5000DEB7AA970FB6F894DEBF0FBECDBF86E4FE
:101B600092E02091F100DC012D93CD01B2E08E34A2
:101B70009B07B9F780914702833009F471C0B8F42C
:101B8000813009F448C0823009F4B2C08091E80085
:101B900083FF3AC180914602909147029A3008F043
:101BA00033C1E92FF0E0E754F14E0C94461E8A3021
:101BB00009F48DC08B3009F470C0893039F78091F9
:101BC0004602813219F780914A0290914B020097A8
:101BD00011F00297D9F68091E800877F8093E800A2
:101BE0008091E80082FF37C09091F3008091F2006D
:101BF000029729F48091F1008B7F813021F480914C
:101C0000F10080933A028091E8008B778093E8009E
:101C10000E949D03BBCF80914602813A09F0B6CF66
:101C20008091E800877F8093E80080914A0290913C
:101C30004B02892B61F468E08BE392E070E00E9434
:101C40004F048091E8008B778093E8009FCF60E09D
:101C500090E080E0F3CF80914E028111C1CF96CF0A
:101C600080914602813A09F091CF80914A02909189
:101C70004B02892B09F08ACF8091E800877F8093FF
:101C8000E8008091E80080FFFCCF80910A018093FA
:101C9000F1008091E8008E77B9CF809146028132C1
:101CA00009F074CF80914A0290914B02892B09F080
:101CB0006DCF8091E800877F8093E8000E949D03AC
:101CC0008091480280930A010E94990D5FCF809114
:101CD0004602813209F05ACF8091E800877F8093D5
:101CE000E8000E949D0380914902809339024ECF03
:101CF00080914602813A09F049CF8091E800877FC0
:101D00008093E8008091E80080FFFCCF8091390249
:101D1000BECF803899F0823809F076C080914A02AF
:101D20008F70873008F070C08093E9008091EB00DD
:101D300085FB882780F91092E90006C08091430254
:101D400090914402911182609091E800977F909366
:101D5000E8008093F1001092F1008091E8008E7706
:101D6000C0C1882309F4ADC1823009F04DC0809113
:101D700048028111B1C180914A028F702FEF280F64
:101D8000263008F041C08093E9002091EB0020FF4D
:101D9000A3C1933031F48091EB0080628093EB001B
:101DA0009BC19091EB0090619093EB0021E030E0BB
:101DB00001C0220F8A95EAF72093EA001092EA0008
:101DC0008091EB008860EACF81111EC0109148021B
:101DD0001F778091E3008078812B8093E3008091CE
:101DE000E800877F8093E8000E949D038091E800CF
:101DF00080FFFCCF8091E30080688093E30082E065
:101E0000111183E080934E028091E80083FF0AC0A5
:101E10008091E800877F8093E8008091EB008062EA
:101E20008093EB00AA960FB6F894DEBF0FBECDBF2D
:101E3000DF91CF911F9108958058823028F720912B
:101E40004802309149022C3DE3E03E07A1F583E0D2
:101E50008A838AE289834FB7F894DE01139620E0E3
:101E60003EE051E2E32FF0E050935700E49120FF71
:101E700003C0E295EF703F5FEF708E2F90E0EA3085
:101E8000C0F0C7968D939D932F5F243159F74FBFB4
:101E90008091E800877F8093E8006AE270E0CE01DD
:101EA00001960E944F048091E8008B778093E800B0
:101EB000ABCFC096E7CF80914A0290914B02432F5F
:101EC00055274330510509F44AC078F54130510592
:101ED00009F485C08BE590E0E7EBF4E04230510572
:101EE00009F092CF2091E800277F2093E80020910D
:101EF0004C0230914D028217930708F49C0140E098
:101F00002115310509F070C041116EC08091E800C3
:101F100082FDC9CF80914E02882329F2853019F2C3
:101F20008091E80083FFF2CFBECF4132510509F422
:101F300047C04232510509F067CF8330910508F060
:101F400063CFFC01EE0FFF1FEF5AFE4F0190F081AF
:101F5000E02D825B9E4FDC018C9190E01DC0332709
:101F600021303105E9F02115310579F022303105B4
:101F7000F9F02330310509F047CFE4E2F5E0E491D0
:101F80008E2F90E0E4E2F5E007C0E0E6F5E0E491B2
:101F90008E2F90E0E0E6F5E0009709F435CFA2CF70
:101FA000EEE4F5E0E4918E2F90E0EEE4F5E0F4CF7E
:101FB000EAE2F5E0E4918E2F90E0EAE2F5E0ECCF82
:101FC0008330910508F020CF880F991FFC01E95A52
:101FD000FE4F0190F081E02D89E090E083CF82E117
:101FE00090E0E2E1F5E07ECF80914E02882309F493
:101FF0005ACF853009F457CF8091E80083FD53CF45
:102000008091E80082FD82CF8091E80080FF78CF48
:102010009091F3008091F2002115310519F088307C
:10202000910550F041E0089709F040E08091E80008
:102030008E778093E80064CF44914093F10031960D
:10204000215031090196E8CF803809F0DDCE80912A
:10205000E800877F8093E800809145028093F1003B
:102060007CCE8111D1CE10914802123008F0CCCE36
:102070008091E800877F8093E800109345020E94DA
:102080009D03112311F084E005C08091E30087FDDA
:10209000FACF81E080934E0242E061EC81E00E9441
:1020A000BC0342E261EC84E00E94BC0342E261ECCA
:1020B00082E00E94BC0342E260EC83E00E94BC0329
:1020C000A3CE80914802813009F09ECE81E093300A
:1020D00009F080E0809344021092E9008091E800CA
:1020E000877F8093E8000E949D038ECE4F925F927F
:1020F0006F927F928F929F92AF92BF92CF92DF9218
:10210000EF92FF920F931F93CF93DF9300D000D0F5
:102110000F92CDB7DEB77C01FC0183819481892BBE
:1021200031F08081918189238F3F09F021C50F9083
:102130000F900F900F900F90DF91CF911F910F9103
:10214000FF90EF90DF90CF90BF90AF909F908F90D7
:102150007F906F905F904F9008950E94490C182FC8
:10216000682F89819A810E94870669817A81812FEF
:102170000E94B20A8C01F7018281882309F4EDC420
:10218000980122513F452031310508F0BFC48FEF3F
:1021900093E00E94671E02515EEAA52E52E0B52E22
:1021A000882379F18091E001877009F4C0CFF701AD
:1021B0008281882309F4BBCF82E00F900F900F90AB
:1021C0000F900F90DF91CF911F910F91FF90EF90A3
:1021D000DF90CF90BF90AF909F908F907F906F9047
:1021E0005F904F900C946207A114F4E0BF06D1F207
:1021F000C5010E94671E811101C001502FEFA21A74
:10220000B20A0111F1CF1C821B82662463944AE05A
:10221000542E85010F5F1F4FC5010E94671E8983E1
:102220001A82882309F4BECF9FEF980F933008F5E8
:102230008A83698232E0A30EB11CC8010E94671E26
:102240008B83882309F4AECF8E010F5F1F4FF801F7
:1022500020812223F1F2213009F043C09181828153
:10226000913049F40E5F1F4F0E945C090F5F1F4FB2
:10227000EECF5801E9CF923029F40E5F1F4F0E9434
:10228000E607F4CF933029F40E5F1F4F0E94A50795
:10229000EDCF943019F00F5F1F4FE8CF0E5F1F4F47
:1022A00030E020E0B8016F5F7F4FF801418180533B
:1022B000990B8A30910550F021503109B8F28FE91D
:1022C0009FE00197F1F700C00000F6CF529EF001A9
:1022D000539EF00D11249C012E0F3F1F842F8B0164
:1022E000E1CFE22FF0E0E95CFB4F7490822F8695FE
:1022F0008695869590E0FC01E95DFB4F8490277000
:10230000912C022E02C0959487940A94E2F7E1E0A2
:102310008E229924FC01E95EFB4FC490D12C02C0AF
:10232000D594C7942A95E2F7F1E0CF22DD248114F9
:10233000910419F081EE0E94E607C114D10419F04E
:1023400086EE0E94E607872D0E945C09CD2819F0D1
:1023500086EE0E94A507892809F488CF81EE96CFE2
:1023600081E00E947A070E9423071CCF81E00E942F
:102370003F07F9CF82E0F5CF053F2CE5120709F4BE
:1023800061C008F45BC027E245EE66EE063F9CE5BF
:10239000190709F4DEC3882309F4FBC310926F0107
:1023A0000230ECE51E0708F430C10631FCE51F07DA
:1023B00038F098012A5F3C452930310508F025C1E5
:1023C0000E947E0A9093FD018093FC0100312CE570
:1023D000120709F4E9C008F073C008308CE518074B
:1023E00009F4D4C008F045C00430ECE51E0709F438
:1023F000C1C078F502302CE5120709F4B5C0809110
:10240000FC01826003301C4509F4B1C06091FC01FD
:102410001091FD0184E090E00E94751E612F81E221
:1024200090E00E94751E0E94990DBCCE27E245EEF9
:1024300065EE8FC326E241EE60EE8BC327E245EEE8
:1024400064EE87C326E241EE62EE83C328E241E0F8
:10245000EFCF06308CE5180709F494C08091FC0199
:10246000886007301C4508F482C08091FC018062BE
:102470007EC08091FC018D7F0C30ECE51E0709F4D5
:1024800076C070F48091FC018C600A302CE5120754
:1024900009F46DC008F47EC08091FC018E7F67C096
:1024A0000E308CE5180709F47BC08091FC018B7F0E
:1024B0000F301C4508F45BC08091FC018F7E57C033
:1024C0000B3FECE51E0709F459C030F503312CE54C
:1024D000120709F471C078F401318CE5180709F48A
:1024E00067C002311C4509F091CF0E94990D80917F
:1024F000FC018F773CC00531ECE51E0709F464C090
:1025000008F478C08091FD0181600A3F1C4509F004
:102510007DCF8093FD017ACF0F3F3CE5130709F48F
:102520004FC088F48091FD018D7F0D3F9CE5190718
:1025300081F38091FD018E7F0E3F1C4550F3809109
:10254000FD018360E6CF0130FDE51F0709F45BC0A4
:1025500008F446C060E002301D4509F057CF8EE018
:1025600090E00E94751E52CF8091FC0181608093A3
:10257000FC014CCF8091FC018460F9CF8091FD017A
:102580008260C7CF8091FC018061F1CF8091FC0116
:102590008064EDCF0E94990D8091FC018068E7CFA7
:1025A0008091FC01877FE3CF8091FC018F7DDFCF9D
:1025B0008091FC018F7BDBCF8091FC01837FD7CFA3
:1025C0008091FD018C7FA5CF8091FC0182FB992732
:1025D00090F921E0922790FB82F990FB83F9C7CF15
:1025E0008091FD01982F909591708E7F892B90FBA3
:1025F00081F98FCF0E94990D9091FC01892F97FB53
:1026000087F98058B4CF61E0AACF06319CE519075D
:1026100009F0D5C28091E3018A7A91E009F490E053
:102620009093700169E2811165E38EE591E00E946B
:1026300012060E943206B6CD85E3B3C20E94990D00
:10264000EFEFF4E32CE0E150F0402040E1F700C070
:1026500000000E9438090E94360DA4CDC8010E94D6
:102660005F06D82EC3C2212F2F70A22E107F19F023
:10267000A29490EFA922DD20C9F0AA2069F080E29F
:10268000800F883010F081100BC08091E301A82AE0
:10269000A092E3010E943206802F0E94E60718C034
:1026A0008091E201A82AA092E201F4CF802F0E943B
:1026B000A507AA2069F0A094005E083010F08110F0
:1026C0003BC08091E301A822A092E3010E94320660
:1026D000EB2DE850FF0B349710F40E944308CC20F8
:1026E00009F425CD8091E00180FD21CDF701128212
:1026F0008595859585950E947A07C7010E94761079
:102700008091E0018595859585950F900F900F90AC
:102710000F900F90DF91CF911F910F91FF90EF904D
:10272000DF90CF90BF90AF909F908F907F906F90F1
:102730005F904F900C943F078091E201A822A092F5
:10274000E201C4CF312F3F70932E107F103219F069
:10275000929480EF9822882071F081E0881661F1D0
:10276000DD20B9F1AA2071F1F701858180FF94CFB6
:102770008F70858327C0DD2091F09091E401892D31
:10278000892BA11003C00E94C806A2CFE1E0AE12BF
:10279000FACF981709F49CCF8093E40199CFA11048
:1027A00006C00E942C06892D0E94BD0691CFF1E043
:1027B000AF1609F48DCFF5CFDD2031F025E02A15D5
:1027C00008F486CF892DDFCF34E03A1508F480CFA6
:1027D000EACFAA2041F3F9E38F1291C12FEF37EE30
:1027E00083E0215030408040E1F700C0000087C105
:1027F000812F86958695837061F0813009F068CFCE
:10280000C8019370D11002C090E080E00E94D2060F
:102810005FCFC8019370D11002C090E080E00E94A9
:10282000E80656CF802FDD2029F00E9479050E940E
:10283000FC054ECF0E94B804FACF812F837009F0B7
:1028400066C0D11045CF802F829586958770880FFE
:10285000880F602F6F70462E512C712C612C082E22
:1028600004C0440C551C661C771C0A94D2F740E047
:1028700050E0BA0104FF0FC04FE050E060E070E0AC
:1028800004C0440F551F661F771F8A95D2F74095E5
:10289000509560957095812F8695869583708230CE
:1028A00019F1D8F40091E5011091E6012091E701BA
:1028B0003091E801813069F044295529662977294A
:1028C000CB01BA0160237123822393230E949B07CB
:1028D000FFCE402A512A622A732ACB01BA01642909
:1028E000752986299729F2CF442955296629772900
:1028F0000091E5011091E6012091E7013091E80196
:10290000CB01BA016027712782279327DFCF8695F5
:10291000DD2011F0812F8170882309F4D9CE802F1A
:10292000829586958770880F880F602F6F70462E6E
:10293000512C712C612C082E04C0440C551C661CB3
:10294000771C0A94D2F740E050E0BA0104FF0FC0B0
:102950004FE050E060E070E004C0440F551F661F78
:10296000771F8A95D2F74095509560957095812F85
:10297000869586958370823019F1D8F400914F02C4
:10298000109150022091510230915202813069F031
:102990004429552966297729CB01BA01602371237F
:1029A000822393230E94190793CE402A512A622A38
:1029B000732ACB01BA016429752986299729F2CF98
:1029C000442955296629772900914F021091500218
:1029D0002091510230915202CB01BA016027712738
:1029E00082279327DFCF1F70DD2029F0812F0E94DF
:1029F0007A07802FC8CE802F0E94BD06812F0E94AB
:102A00003F0766CE802F92EF891609F450C09815C3
:102A100078F0E0EF8E1619F1F1EF8F1609F43FC050
:102A2000DD2009F467C0A11037CE812F8F713CC023
:102A300023EF821609F440C034EF8312F1CFDD207A
:102A400009F44DC01F71812F0E947A07E8E01E9F94
:102A5000C001112483608093E001812F25C0DD2017
:102A6000C9F084E08A1508F433CE1F7161E070E08C
:102A700080E090E004C0660F771F881F991F1A95A9
:102A8000D2F700914F0210915002209151023091E3
:102A90005202A4CF95E09A1508F41ACEE6CF812F02
:102AA0008F71DD2009F4ABCF0E947A0711CE812F00
:102AB0008F71DD20C9F3A3CF60E070E0CB01DD2092
:102AC00009F470CF1F7161E070E080E090E004C015
:102AD000660F771F881F991F1A95D2F763CF81E081
:102AE0000E946207F1E0FA1508F0F2CD82E00E9440
:102AF0006207EECDAA2039F0893309F46FCE802F1A
:102B00000E94A507E5CD812F8F7179CF0031FFE5B8
:102B10001F0709F425CC01312FE5120709F42ACC4F
:102B2000033F2CE5120709F485CC08F025CC083DBD
:102B30009CE5190709F47ACC093DECE51E0709F478
:102B400085CC073DFCE51F0709F025CC26E241EEC8
:102B500061EEC7010E946F0925CB00313FE51307E5
:102B600009F404CC01319FE51907D1F682E0FFCBCF
:102B700085E0DE01119601900D928A95E1F7F7014B
:102B8000228189819A812111E8CA0E945F06182F4B
:102B9000ECCA06311C45E1F48091700181114CCDE5
:102BA00089E2E0E6F1E026E631E09191891303C085
:102BB000DF0111971C922E173F07B9F73ACD011587
:102BC0002CE5120709F43ACD0E3D1C4509F443CD1E
:102BD000F70100811181882309F440CDC8010E94CA
:102BE000490CD82E682FC8010E948706B8018D2D88
:102BF0000E94BF0A8C01882EF701A580A2943FE0B5
:102C0000A322D280D1101092E2018091E00187705E
:102C100099F0DD2089F0812F807F803421F080E2DF
:102C2000800F883048F082E00E9462078091E001C6
:102C30008770CC24C3948111C12CB12EB2942FE0A3
:102C4000B222FBE0FB1508F443CDEB2DF0E0ED5391
:102C5000F14E0C94461E1F93CF93DF938091760123
:102C6000807FA9F480917301882389F08091A80165
:102C7000D09177016091710170917201A0917401FE
:102C8000B0917501C62FC72316E0D81304C0DF9199
:102C9000CF911F91089590E0109711F0CF3F19F454
:102CA00001968770F2CF189F9001199F300D112463
:102CB000F901E858FE4F41814713F2CF4081461396
:102CC000EFCF42814111ECCF438154814A1B5B0B12
:102CD000483C510528F7809176018F708061809380
:102CE0007601F901E358FE4F80818F708061808307
:102CF00081E791E00E947610DF91CF911F910C94B3
:102D0000B306AF92BF92CF92DF92EF92FF920F93F2
:102D10001F93CF93DF93CDB7DEB761970FB6F894CB
:102D2000DEBF0FBECDBF8C0185E0F801DE011D9630
:102D300001900D928A95E1F7F80180819181E280FE
:102D400021E7A22E21E0B22E6091740170917501ED
:102D50006115710509F43EC1309171014091720114
:102D6000232F24232F3F09F435C1C380D480F09052
:102D70007301F601E61BF70BFF2009F4FBC020915D
:102D80007601522F507FE83CF10508F0BBC051118D
:102D900078C0FE2C491321C038131FC0E1101DC09C
:102DA0002F70206120937601C5010E9476108091DA
:102DB0007601F80185838F2D61960FB6F894DEBFFA
:102DC0000FBECDBFDF91CF911F910F91FF90EF907C
:102DD000DF90CF90BF90AF900895CD2829F0282F95
:102DE00029232F3F09F014C120E0F22FF170DF2ECC
:102DF00020FF3DC02091A8014091770156E02413A7
:102E000015C08D879E878D859E850E948B0C292FEE
:102E100022952F702230F8F0243020F59F70F9F0C1
:102E2000F8019581907FD9F4D12C1FC030E0529FDA
:102E3000F001539FF00D1124E858FE4F6181961365
:102E400006C06081861303C06281E61210C02F5F46
:102E50003F4F2770D4CF9F7011F0882329F3805EF5
:102E6000883010F3C8010E947610FD2CA4CFEE200C
:102E700009F4A1CF80917601816080937601F12CD5
:102E80009ACF491312C0381310C0E1100EC0F801D8
:102E90002583C8010E94761086E0F801A1E7B1E021
:102EA00001900D928A95E1F786CF8D879E878D855B
:102EB0009E850E94950C882309F1EE20F9F08091FF
:102EC0007601803270F02091710130917201388763
:102ED0002F831986DB86CA868C87CE0107960E94CF
:102EE000761086E0F801A1E7B1E001900D928A9595
:102EF000E1F70E942B16FF24F3945DCFC8010E94D6
:102F00007610F9CF51110AC081E791E00E94761046
:102F100086E0F50111928A95E9F7B1CF49130FC008
:102F200038130DC0E1100BC0F8012583C8010E94C1
:102F3000761086E0F50111928A95E9F73CCF8D87EE
:102F40009E878D859E850E94950C8823B9F2EE2080
:102F5000A9F280917601803220F2209171013091A6
:102F600072013A8329831B82DD82CC828E83CE015B
:102F70000196B5CFE83CF105E0F6FE2CEE2009F411
:102F8000BDCF491316C0381314C08091760180FD5F
:102F900083CF982F907F09F47FCFF8018583903FEE
:102FA00009F477CF982F907F905F8F70892B85835E
:102FB00070CF8D879E878D859E850E94950C81118F
:102FC00090CF80917601816080937601C8010E9444
:102FD0007610F1CEEE2009F491CF8D879E878D85F6
:102FE0009E850E94950CF82E882309F487CF86E0F1
:102FF000F801A1E7B1E001900D928A95E1F7809187
:103000007101909172010E948B0C0E942B16D3CEFD
:1030100021E02E25EACE1F93CF93DF93CDB7DEB705
:1030200067970FB6F894DEBF0FBECDBF4B8B5C8B9E
:103030006D8B7E8B8F8B1A8A198A85E0FE017396C1
:10304000DE011D9601900D928A95E1F786E0FE0162
:103050003D96DE01179601900D928A95E1F7CE011B
:1030600007960E948116882389F016E08091A801B6
:1030700090917701891349C067960FB6F894DEBF27
:103080000FBECDBFDF91CF911F91089586E0FE0165
:103090003796DE01119601900D928A95E1F78A85A7
:1030A0009B85892B11F38F81988589238F3FE9F2C6
:1030B0002091770130E0C9010196877099274091EE
:1030C000A8014817190671F40E94990D1092770112
:1030D0001092A80186E0E1E7F1E0DF011D928A95F8
:1030E000E9F7C3CF96E0929FD001939FB00D1124D2
:1030F000A858BE4FFE01319601900D929A95E1F7C6
:10310000809377010E94B306B0CF819FC001112444
:1031100088589E4F0E948116882309F4ADCF809174
:10312000A80190E00196877099278093A8019ECF0F
:103130001F920F920FB60F9211242F933F934F932C
:103140005F936F937F938F939F93AF93BF93CF932F
:10315000DF93EF93FF93D091E900DF708091EC0053
:10316000C82FC17080FDC0E81092E9008091F00086
:10317000877F8093F00078940E94A40D1092E9005C
:103180008091F00088608093F000CD2BCF70C093C9
:10319000E900FF91EF91DF91CF91BF91AF919F91A6
:1031A0008F917F916F915F914F913F912F910F90F0
:1031B0000FBE0F901F9018951F920F920FB60F928F
:1031C00011242F933F934F935F936F937F938F932C
:1031D0009F93AF93BF93EF93FF938091E10082FFA2
:1031E00009C08091E20082FF05C08091E1008B7FE1
:1031F0008093E1008091DA0080FF24C08091D800A4
:1032000080FF20C08091DA008E7F8093DA00809169
:10321000D90080FF9FC080E189BD82E189BD09B4EA
:1032200000FEFDCF81E080934E0280913802811133
:1032300009C00E94FB020E94EE038091E2008460BC
:103240008093E2008091E10080FF17C08091E2004E
:1032500080FF13C08091E2008E7F8093E200809116
:10326000E20080618093E2008091D80080628093C8
:10327000D80019BC85E080934E028091E10084FF64
:103280002DC08091E20084FF29C080E189BD82E1E8
:1032900089BD89B5982F917080FFFBCF8091D800B0
:1032A0008F7D8093D8008091E1008F7E8093E10034
:1032B0008091E2008F7E8093E2008091E200816045
:1032C0008093E20080914502882309F449C084E09C
:1032D00080934E020E94990D0E9443088091E10064
:1032E00083FF27C08091E20083FF23C08091E1002B
:1032F000877F8093E10082E080934E021092450226
:103300008091E1008E7F8093E1008091E2008E7FCA
:103310008093E2008091E20080618093E20042E0CD
:1033200060E080E00E94BC038091F00088608093A0
:10333000F000FF91EF91BF91AF919F918F917F919D
:103340006F915F914F913F912F910F900FBE0F9012
:103350001F90189519BC10924E021092380272CF2D
:103360008091E30087FD93E090934E02B3CFCDB7F9
:10337000DEB7AA970FB6F894DEBF0FBECDBF84B7F5
:10338000877F84BF0FB6F894A8958091600088610C
:1033900080936000109260000FBE80E890E00FB64E
:1033A000F89480936100909361000FBE85B78068A8
:1033B00085BF85B7806885BF0E94FB020E94EE032F
:1033C0008091E20084608093E200789480914E02C4
:1033D0008823A1F01091E9001F709091EC00892FD3
:1033E000817090FD80E8182B1092E9008091E80030
:1033F00083FD0E94A40D1F701093E90082E084BD3C
:1034000093E095BD9AEF97BD80936E00ACE3B1E079
:1034100061E070E08D91E82FE295EF70F0E041A15E
:103420008F709B0101C0220F8A95EAF7922F909529
:10343000942391A382A1822B82A321E0A534B20719
:1034400049F7A5E4B1E04EE451E061E070E08D9110
:10345000E82FE295EF70F0E011A18F709B0101C0A1
:10346000220F8A95EAF7922F9095912391A382A13A
:10347000822B82A34A175B0751F7EAEEF1E08CEF4B
:1034800091E0A2E2B2E0119211921D921D928E176C
:103490009F07C9F70E94D3094FEF86E791E041509B
:1034A00080409040E1F700C000000E94D309809165
:1034B000220280FF0BC080E00E941E0D6FEF7FEFA5
:1034C00090E080E00E94931E0E94380990E080E026
:1034D0000E946F1E8C3E9E4F11F00E94360D82E2BC
:1034E00090E00E94671E803209F051C383E290E0B1
:1034F0000E94671E883009F04AC384E290E00E946F
:10350000671E813209F043C390E080E00E946F1E85
:103510008C3E9E4F11F00E94360D82E090E00E949A
:10352000671E80930F020E947E0A9093FD01809394
:10353000FC0183E090E00E94671E682F70E090E03D
:1035400080E00E949B0780E091E09093FF018093D0
:10355000FE01EE24EA94FF24F39452E5252E60E167
:10356000662E72EA372EE2E17E2EF9E04F2EA8E1B8
:103570008A2E912CB0E45B2E80914E02853009F4A6
:103580005EC10E94D309E0E1F2E0A2E2B2E010E005
:1035900000E0602F8D919D9121913191281739077D
:1035A00009F48BC12827392770E0CC24C394D12C8F
:1035B000A9014C215D21452B09F479C179A36AA3A6
:1035C0009C012C213D2191E0232B09F490E09BA349
:1035D0000E94F0058160782F9DA38CA349A15AA178
:1035E0006BA18DA10E940B18000F111FF801E05F65
:1035F000FD4F80819181C826D926D182C08286E084
:10360000E8E0F2E0DE01119601900D928A95E1F773
:1036100080910A0290910B02892B09F468C0809175
:103620000602909107020E94E1059C01909105021B
:10363000992309F4C7C22333310508F458C09F3FCA
:1036400019F09F5F9093050210920C0210920D02E8
:1036500080910A02181624F40E94590580930A02E8
:1036600080910A0287FF05C00E94590581958093C9
:103670000A0280910B02181624F40E9459058093C7
:103680000B0280910B0287FF05C00E9459058195AE
:1036900080930B0230910A023323B1F020910B0288
:1036A000222391F045EB3403C0011124992309F43E
:1036B0001AC190930A0245EB24039001112433238D
:1036C00009F414C130930B020E94FC05809103029F
:1036D00090910402909307028093060286E0FE0117
:1036E0003196A8E0B2E001900D928A95E1F78091C1
:1036F0000C0290910D02892B09F468C0809101029F
:10370000909102020E94E1059C019091050299238B
:1037100009F453C22536310508F458C09F3F19F00B
:103720009F5F9093050210920A0210920B02809103
:103730000C02181624F40E94370580930C02809125
:103740000C0287FF05C00E943705819580930C020B
:1037500080910D02181624F40E94370580930D0203
:1037600080910D0287FF05C00E94370581958093E7
:103770000D0230910C023323B1F020910D0222236F
:1037800091F045EB3403C0011124992309F4B1C031
:1037900090930C0245EB240390011124332309F488
:1037A000ABC030930D020E94FC0580910302909102
:1037B0000402909302028093010286E0FE0131969A
:1037C000A8E0B2E001900D928A95E1F70E944308CB
:1037D00090910E02891721F00E94430880930E02F7
:1037E00080914E02843009F0C7CE83E08093E900D7
:1037F0008091E80082FFC0CE8091E80090E085FFD4
:103800000CC00E941A0330E2C32ED12C8E010F5F30
:103810001F4F882309F47DC091E08091E8008B77E9
:103820008093E800992309F4A7CEE981E150E331C0
:1038300008F0BFC0F0E0E153F14E0C94461E8091B9
:103840004E02843009F1109200020FB6F894A89548
:10385000809260000FBE5092600083B7817F8460C9
:1038600083BF83B7816083BF7894889583B78E7F49
:1038700083BF0FB6F894A89580916000886180930B
:103880006000109260000FBE80914402882309F40A
:1038900073CE0E94D309E2E2F2E081919191892BEB
:1038A00009F061C122E0E433F207B9F765CE7F5F2A
:1038B000CC0CDD1C793009F07BCE0F5F1F4F093037
:1038C000110509F066CEEEA2EFA218A60E94F0053F
:1038D0008160782F9AA789A74EA15FA168A58AA5C4
:1038E0000E940B188CCEF0920A02E5CEF0920B02E9
:1038F000EBCEF0920C024ECFF0920D0254CF80919D
:10390000F100F80181938F01F1E0CF1AD10809F499
:1039100083CF8091E80085FDF2CF8091E8008B771E
:103920008093E8000E941A03882399F375CF1A82C6
:103930004B82CE0101960E9475031ECE8A81823091
:1039400009F432C18330A1F0813099F52FB7F89492
:103950006091340270913502809136029091370265
:103960002FBF0E944C1E6B837C838D839E83E1CF8F
:10397000DE011196E2E2F2E08081918132961296A8
:103980009C93129713968C931397129622E0E4332C
:10399000F20791F7CECF8A81823059F46B817C8116
:1039A0008D819E810E944C1E85E290E00E94751ED2
:1039B000C0CFE982BECF4C816B818A810E948C0A84
:1039C0009827892798279E838D83B3CF0D811E81E9
:1039D0001027012710278A81CB80C79C6001112402
:1039E000839DC00CD11C11248C8190E0880F991FFD
:1039F000C80ED91E612FC60186960E94751E602FC3
:103A0000C6018796D3CF0E94B90C93CF6A8291CF1B
:103A1000FA822B828ECF0A811B8110270127102763
:103A2000CE0101966C01AC80FC01EA0DF11D5F0135
:103A3000C80182559D4FAC14BD0409F47ACF0235FC
:103A4000F1E01F0750F40E94671EF60184830F5FA8
:103A50001F4FFFEFCF1ADF0AEBCFF6011482F7CF2B
:103A60000A811B81102701271027CE0101965C01D6
:103A7000CC80C00ED12ED11CC80182559D4FC016DE
:103A8000D10609F456CF0235E1E01E0720F4F50116
:103A900064810E94751EFFEFAF1ABF0A0F5F1F4FB0
:103AA000EBCF0E940E0D45CF24E02A8342CF0A813E
:103AB0001B81102701271027CE0101966C01AC80D5
:103AC000FC01EA0DF11D5F01C8018696AC14BD042E
:103AD00009F42FCF0838F2E01F0750F40E94671E48
:103AE000F60184830F5F1F4FFFEFCF1ADF0AECCF81
:103AF000F6011482F7CF0A811B81102701271027B6
:103B0000CE0101965C01CC80C00ED12ED11CC80123
:103B100086960C151D0509F40CCF0838E2E01E0747
:103B200020F4F50164810E94751EFFEFAF1ABF0AF1
:103B30000F5F1F4FECCF80E00E941E0D6FEF7FEFF5
:103B400090E080E00E94931EF4CECE0101960E9488
:103B500075032FEF41EE84E0215040408040E1F7B3
:103B600000C00000B1CC69BC79BC09B400FEFDCF37
:103B70008091D8008F7D8093D8008091E000826092
:103B80008093E0008091E00081FDFCCFF5CC60E007
:103B900085E290E00E94751E0E94B90C0E940E0DF5
:103BA00081E00E941E0DB0CC85E290E00E94671E6D
:103BB0001B821C821D828E83BCCE2D32314008F0C8
:103BC000AFCD04CE2D32314008F03BCD90CD78946E
:103BD0001F921FB61F9211248F939F93AF93BF9391
:103BE0008091340290913502A0913602B091370253
:103BF0000196A11DB11D8093340290933502A093CC
:103C00003602B0933702BF91AF919F918F911F9071
:103C10001FBE1F9018951F921FB61F9211248F93DD
:103C20009F93AF93BF9380910002811113C0809145
:103C3000340290913502A0913602B091370241963C
:103C4000A11DB11D8093340290933502A0933602DA
:103C5000B0933702BF91AF919F918F911F901FBE7C
:103C60001F90189597FB072E16F4009407D077FD48
:103C700009D00E94531E07FC05D03EF49095819513
:103C80009F4F0895709561957F4F0895EE0FFF1F28
:103C90000590F491E02D09946927962769277827E4
:103CA000872778270895AA1BBB1B51E107C0AA1FCD
:103CB000BB1FA617B70710F0A61BB70B881F991FCD
:103CC0005A95A9F780959095BC01CD010895F99971
:103CD000FECF92BD81BDF89A992780B50895A8E1DD
:103CE000B0E042E050E00C949B1E262FF999FECFE5
:103CF00092BD81BDF89A019700B4021639F01FBA3F
:103D000020BD0FB6F894FA9AF99A0FBE089503965B
:103D1000272F0E94761E0E94751E252F0E94761E58
:103D2000242F0C94761E0196272F0E94761E0C9449
:103D3000751EDC01CB01FC01F999FECF06C0F2BD76
:103D4000E1BDF89A319600B40D9241505040B8F759
:103D50000895F894FFCFA40CA40CAD0CAD0CAF0CDF
:103D6000AD0CAD0CAD0CA40CA40CB40CAD0CAD0C96
:103D7000B40C890EB10E040FB10E040FE40E1C0F2B
:103D8000040F2410311033133313A213A213F813AA
:103D90001214681368131D14F31402150215971CEE
:103DA0009E1CCB1CDB1CE61C031DD91CD91CD91C7A
:103DB0009B1DA51D061D081D0B1D301D511D541DED
:043DC000571D7B1DF3
:103DC400B5040509DA08D608C40801818283E20033
:103DD400E900EA00B500B600B700CD008301CC00CD
:103DE4008A0192019401210223022402250226025F
:103DF40027022A02B300B4006F00700032F0669408
:103E040093F192359536F7F6F5F490919734402274
:0E3E1400814F012D01AC00C904E2040205003B
:00000001FF
